:0E0000000C9437000C9400000C9400000C943B
:10000E0000000C9400000C9400000C9400000C9462
:10001E0000000C9400000C9400000C9400000C9452
:10002E0000000C9400000C9400000C9400000C9442
:10003E0000000C9400000C9400000C9400000C9432
:10004E0000000C9400001F1F1F1F1F1F1F1F00000A
:10005E0080C001000B005C00020070025E00000018
:10006E00F894EE27ECBBF1E0FBBFEBBFE5BFF8E188
:10007E00F1BDE1BD8DE0A2E0BB27ED938A95E9F7D6
:10008E0080E098E0A0E6ED930197E9F7E0E6F0E076
:10009E0085919591009761F0A591B5910590159078
:1000AE00BF01F00105900D920197E1F7FB01F0CF32
:1000BE00EFE5EDBFE8E0EEBFC0E6D2E00C948B00BA
:1000CE00AA931A930A93EA81EE0FEE0FEE0FE064F5
:1000DE000E2F10E0183060F40A930395EC81FD8129
:1000EE003196EC83FD833197A4916ED01F5FF2CFD2
:1000FE001981088125960895AA93E881E03011F4BC
:10010E00C39801C0C39A9CC0E0E0EBBBEABBEFEF23
:10011E00E8BBE7BBE0E0E5BBE4BBE2BBECEFE1BB79
:10012E00EAE4E3BFE0E0E2BFEFE0ECBFE1EAEFBDFF
:10013E00EBE0EEBDE0E0EDBDECBDE7BDE6BDEBBD39
:10014E00EABDE9BDE8BDE2BDE5BDE4BDE3BDE5BF89
:10015E00E4BFE9BFEAB9E0E8E8B9E0E0E0BFE0E615
:10016E00E7B9E7E8E6B9E0E0EDB9E6BFA0E13FD0D8
:10017E0034D0E4E5F0E0FA93EA93A0E0A1DFA1E049
:10018E00BBDFFFCFFFCFAA93E8B3EF70AE2FE881AE
:10019E00E07FEA2BE8BB8BE08A95F1F7C29A8BE100
:1001AE008A95F1F7C2988BE18A95F1F749C0AA9327
:1001BE00A881E9DFE881E295E883A881E4DF88EC95
:1001CE0090E00197F1F73CC0AA93A981F0DFC09AA5
:1001DE00A881EDDFC09822960895A2E033D0ACE05E
:1001EE00E6DFA1E02FD0E0E0DE2EAE2E0895AA933A
:1001FE00E7B3E06FE7BBBA9AB89AB99AC298C098BB
:10020E00C198C880E881E058E0937202E881E0541A
:10021E00E0937302A4E1B0E00E94350118D017D02C
:10022E0016D0A0E2B0DF80E991E00197F1F7A8E2E5
:10023E00BEDFA4E0BCDFA5E8BADFA6E0B8DFCDDF05
:10024E0021960895B4DFA3E0B0E00C943501A0E34D
:10025E009ADF80E991E00197F1F70895109639F051
:10026E0080EA9FE00197F1F7A8951197C9F70895D5
:00000001FF
