:020000000C945E
:100002003B000C9400000C9400000C9400000C9433
:1000120000000C9400000C9400000C9400000C945E
:1000220000000C9400000C9400000C9400000C944E
:1000320000000C9400000C9400000C9400000C943E
:1000420000000C9400000C9400000C9400000C942E
:1000520000001F1F1F1F1F1F1F1F1F111111111132
:10006200111F000080C001000B0064000200780232
:1000720066000000F894EE27ECBBF1E0FBBFEBBF9B
:10008200E5BFF8E1F1BDE1BD8DE0A2E0BB27ED9354
:100092008A95E9F780E098E0A0E6ED930197E9F709
:1000A200E8E6F0E085919591009761F0A591B59110
:1000B20005901590BF01F00105900D920197E1F7AF
:1000C200FB01F0CFEFE5EDBFE8E0EEBFC0E6D2E026
:1000D2000C946B00E0E0EBBBEABBEFEFE8BBE7BBE5
:1000E200E0E0E5BBE4BBE2BBECEFE1BBEAE4E3BF8B
:1000F200E0E0E2BFEFE0ECBFE1EAEFBDEBE0EEBD36
:10010200E0E0EDBDECBDE7BDE6BDEBBDEABDE9BD9E
:10011200E8BDE2BDE5BDE4BDE3BDE5BFE4BFE9BFC7
:10012200EAB9E0E8E8B9E0E0E0BFE0E6E7B9E7E82D
:10013200E6B9E0E0EDB9E6BFA0E110D1F1D0E4E527
:10014200F0E0FA93EA93A0E00FD0ECE5F0E0FA9346
:10015200EA93A1E009D0A1E05FD0E2D02BD0E0E0A9
:1001620028D187D0FCCFFFCFAA931A930A93EA81B2
:10017200EE0FEE0FEE0FE0640E2F10E0183060F479
:100182000A930395EC81FD813196EC83FD833197CF
:10019200A491B1D01F5FF2CF1981088125960895ED
:1001A200AA93E881E066E7B9369A349BFECF349A87
:1001B200E5B1FDC01A9310E0A0E0B0E00E943D025C
:1001C2005E2EA1E0B0E00E943D024E2EA2E0B0E021
:1001D2000E943D027E2EA3E0B0E00E943D026E2E00
:1001E2001830C0F4E9D0E05AFD4FE9D0AC5FBF4F00
:1001F200EAD0E859FD4FE3D0A45FBF4FE4D0E05905
:10020200FD4FDDD0AC5EBF4F0E943D02D001EC93AA
:100212001F5FE6CF19910895AA93E881E03011F4A7
:10022200C39801C0C39AC3C0AA931A93A981BB27DA
:10023200E4E6F0E00E942102DF01EAE0F0E00E9441
:100242001C021E2FA981B0E0E4E6F0E00E941C022D
:10025200E05DAE2F6FD0A12FA05D6CD0A981BB272E
:10026200EAE0F0E00E942102E05DAE2F63D0188147
:1002720055C0E0E09ED0A0E0ABD0E4E09AD0A1E08F
:10028200A7D0E8E096D0A2E0A3D0ECE092D0A3E021
:100292009FD0E0E0A0D0A4E09BD0E4E09CD0A5E019
:1002A20097D0E8E098D0A6E093D0ECE094D0A7E015
:1002B2008FD00895AA93E8B3EF70AE2FE881E07F64
:1002C200EA2BE8BB8BE08A95F1F7C29A8BE18A951B
:1002D200F1F7C2988BE18A95F1F769C0AA93A881D8
:1002E200E9DFE881E295E883A881E4DF88EC90E029
:1002F2000197F1F75CC0AA93A981F0DFC09AA881A7
:10030200EDDFC0980BC0AA93E881F0E0E858FD4FFA
:10031200E081A981AE0FE2DFA980D88022960895FC
:10032200A2E05CD0ACE0DADFA1E058D0E0E0DE2E63
:10033200AE2E0895AA93A881AA3011F0AC1440F011
:10034200E0E0EA93D394AD2DDEDFA881AA3079F103
:10035200A394C09AA881C2DFC09829C0AA93E7B328
:10036200E06FE7BBBA9AB89AB99AC298C098C19896
:10037200C880E881E058E0937A02E881E054E09393
:100382007B02A4E1B0E00E94FB012DD02CD02BD047
:10039200A0E290DF80E991E00197F1F7A8E29EDF09
:1003A200A4E09CDFA5E89ADFA6E098DFB9DF2196FA
:1003B2000895EA93A0E0A7CFE12FF0E008950F019E
:1003C200A12FB0E008950E943D02D001EC93F4CF3A
:1003D200E7DEAE2F29CFEA93A1E095CF7FDFA3E03E
:1003E200B0E00C94FB01A0E365DF80E991E00197A6
:1003F200F1F70895109639F080EA9FE00197F1F73E
:10040200A8951197C9F70895F195E195F0400895DF
:100412000024112490E1AA0FBB1F001C111C0E1A0C
:100422001F0A18F40E0E1F1E01C0A1609A9599F7BB
:10043200FD01D001089512D0EBDF0EF4E5DF08953F
:10044200E894B7FF04C0A095B09511966894F7FDA3
:10045200DBDFDEDFFD010EF4D7DF0895E894F7FF5E
:1004620002C0D2DF6894B7FF06C0A095B09511967E
:1004720000F8039400FA0895E199FECFFF93FFB7C5
:10048200F894AEBBBFBBE09AEDB3FFBFFF910895F6
:00000001FF
