:040000000C943B0021
:100004000C9400000C9400000C9400000C9400006C
:100014000C9400000C9400000C9400000C9400005C
:100024000C9400000C9400000C9400000C9400004C
:100034000C9400000C9400000C9400000C9400003C
:100044000C9400000C9400000C9400000C9400002C
:100054001F1F1F1F1F1F1F1F1F1111111111111F00
:10006400000080C001000B00640002007002660002
:100074000000F894EE27ECBBF1E0FBBFEBBFE5BF5B
:10008400F8E1F1BDE1BD8DE0A2E0BB27ED938A95D7
:10009400E9F780E098E0A0E6ED930197E9F7E8E658
:1000A400F0E085919591009761F0A591B591059047
:1000B4001590BF01F00105900D920197E1F7FB0146
:1000C400F0CFEFE5EDBFE8E0EEBFC0E6D2E00C9480
:1000D4000201AA931A930A93EA81EE0FEE0FEE0F30
:1000E400E0640E2F10E0183060F40A930395EC815D
:1000F400FD813196EC83FD833197A491EDD01F5F90
:10010400F2CF1981088125960895AA93E881E066C3
:10011400E7B9369A349BFECF349AE5B139C1AA9334
:100124001A93A981BB27E4E6F0E00E941402DF01E0
:10013400EAE0F0E00E940F021E2FA981B0E0E4E69D
:10014400F0E00E940F02E05DAE2FE5D0A12FA05D8C
:10015400E2D0A981BB27EAE0F0E00E941402E05D4E
:10016400AE2FD9D01881CBC00E94300210E000E03D
:1001740030E0BB24183090F40DD1EA0FFB1FFF933D
:10018400EF93A12FC2DFAF91BF91EC9303D107D1BD
:1001940010F40F5F01C03F5F1F5FECCF031770F4D3
:1001A40010E0183050F4F6D0FAD028F4E12FA1E092
:1001B4000E94F401BE2A1F5FF4CF14C010E018306F
:1001C40088F4E8D0AE0FBF1FAC91E8E6F2E0B0E0EF
:1001D400AE17BF0728F4E12FA1E00E94F401BE2A64
:1001E4001F5FEDCFA02F9BDF0E9435022496089558
:1001F400AA93E881E03011F4C39801C0C39AC8C03F
:10020400E0E0EBBBEABBEFEFE8BBE7BBE0E0E5BB5C
:10021400E4BBE2BBECEFE1BBEAE4E3BFE0E0E2BF56
:10022400EFE0ECBFE1EAEFBDEBE0EEBDE0E0EDBDF9
:10023400ECBDE7BDE6BDEBBDEABDE9BDE8BDE2BD91
:10024400E5BDE4BDE3BDE5BFE4BFE9BFEAB9E0E86D
:10025400E8B9E0E0E0BFE0E6E7B9E7E8E6B9E0E006
:10026400EDB9E6BFA0E16BD04CD0E4E5F0E0FA9341
:10027400EA93A0E02EDFECE5F0E0FA93EA93A1E044
:1002840028DFA1E0B5DF3DD0E0E0EA93A0E02CD088
:100294006BDFFACFFFCFAA93E8B3EF70AE2FE881FC
:1002A400E07FEA2BE8BB8BE08A95F1F7C29A8BE1F9
:1002B4008A95F1F7C2988BE18A95F1F769C0AA9300
:1002C400A881E9DFE881E295E883A881E4DF88EC8E
:1002D40090E00197F1F75CC0AA93A981F0DFC09A7E
:1002E400A881EDDFC0980BC0AA93E881F0E0E05943
:1002F400FD4FE081A981AE0FE2DFA980D88022966C
:100304000895A2E055D0ACE0DADFA1E051D0E0E0FE
:10031400DE2EAE2E0895AA93A881AA3011F0AC1453
:1003240040F0E0E0EA93D394AD2DDEDFA881AA305B
:1003340079F1A394C09AA881C2DFC09829C0AA9376
:10034400E7B3E06FE7BBBA9AB89AB99AC298C09873
:10035400C198C880E881E058E0937202E881E054D3
:10036400E0937302A4E1B0E00E94E60126D025D018
:1003740024D0A0E290DF80E991E00197F1F7A8E2B0
:100384009EDFA4E09CDFA5E89ADFA6E098DFB9DF52
:1003940021960895E12FF0E0DE0114960895AE0F42
:1003A400BF1FAC91E0E6F2E0B0E0EA17FB07089566
:1003B40086DFA3E0B0E00C94E601A0E36CDF80E903
:1003C40091E00197F1F70895109639F080EA9FE0E3
:1003D4000197F1F7A8951197C9F70895F195E1955B
:1003E400F0400895EE230E2EEA2F19F0EE0F0A9432
:1003F400E9F708950024112490E1AA0FBB1F001C03
:10040400111C0E1A1F0A18F40E0E1F1E01C0A16043
:100414009A9599F7FD01D001089512D0EBDF0EF4FF
:10042400DDDF0895E894B7FF04C0A095B095119658
:100434006894F7FDD3DFDEDFFD010EF4CFDF08950E
:10044400E894F7FF02C0CADF6894B7FF06C0A0951E
:10045400B095119600F8039400FA08953A932A93FC
:100464001A930A9308953B812A811981088108957A
:00000001FF
