:060000000C9468000C9452
:1000060000000C9400000C9400000C9400000C946A
:1000160000000C9400000C9400000C9400000C945A
:1000260000000C9400000C9400000C9400000C944A
:1000360000000C9400000C9400000C9400000C943A
:1000460000000C9400000C9400000C9400001F1F8C
:100056001F1F1F1F1F1F1F1111111111111F101814
:100066001C1F1F0F070301030F1F1F1E1C1801076C
:100076000F1F1F0F0701101C1E1F1F1E1C10000044
:100086000000803F0100524F424F54494B412055DA
:100096004E4E4553200000044249534D494C4C41B5
:1000A6004805000000FF000000000100000080C0BD
:1000B6000100020084000400600286000A000400B9
:1000C600AA0002008402B4000000F894EE27ECBBFC
:1000D600F1E0FBBFEBBFE5BFF8E1F1BDE1BD8DE0AF
:1000E600A2E0BB27ED938A95E9F780E098E0A0E6C9
:1000F600ED930197E9F7E6EBF0E08591959100978E
:1001060061F0A591B59105901590BF01F00105909C
:100116000D920197E1F7FB01F0CFEFE5EDBFE8E0C7
:10012600EEBFC0E6D2E00C949800E0E0EBBBEABB81
:10013600EFEFE8BBE7BBE0E0E5BBE4BBE2BBECEF1F
:10014600E1BBE1EAEFBDEBE0EEBDE0E0EDBDECBD0D
:10015600E7BDE6BDEBBDEABDE9BDE8BDE0E6E7B952
:10016600E7E8E6B921D153D0F4D0AFD02BD047D1B0
:10017600FDCFFFCFAA931A930A93EA81EE0FEE0FF3
:10018600EE0FE0640E2F10E0183068F40A93039522
:10019600EC81FD813196EC83FD833197A4910E9419
:1001A6001E031F5FF1CF1981088125960895AA9332
:1001B600E881E066E7B9369A349BFECF349AE5B11A
:1001C6000C948C030E94370418E030E06624E12F7B
:1001D6001150E03089F0A12FEADF0E2F0E948E0326
:1001E600E458FD4FE081E01730F43F5FE12FA1E0D6
:1001F6000E94BE036E2AEBCF343018F060946894E8
:1002060001C0E89420F80E943E042496089522979F
:100216000E94350410E040E050E0DA010E94180424
:100226005E2E41E050E0DA010E9418044E2EA52D04
:10023600BB27E42DF0E0AE1BBF0BE8E0F0E00E9428
:10024600EF037E2E22E030E0D9010E9414044F0114
:10025600E4E0F0E0EE83FF83AE81BF810E941004EC
:10026600E0936002F093610260936202709363020E
:1002760028E030E0D9010E9414045F011830C0F470
:100286000E948E03E65FFF4FAF010E948E03E45982
:10029600FD4F0E9491030E948E03EE5EFF4FAF0159
:1002A6000E948E03EC58FD4F0E9491031F5FE6CF1C
:1002B6000E943C0428960895AA93E881E03011F440
:1002C600C39801C0C39A0C948C039698979A9298F7
:1002D600939A0895AA931A93A981BB27E4E6F0E0BE
:1002E6000E94F403DF01EAE0F0E00E94EF031E2F14
:1002F600A981B0E0E4E6F0E00E94EF03E05DAE2FF6
:100306000E944303A12FA05D0E944303A981BB273E
:10031600EAE0F0E00E94F403E05DAE2F0E944303A2
:1003260018810C9435031A9310E0183088F4E12FE5
:10033600A1E0B0E00E94C603A62DB0E0EA23FB23AD
:10034600309711F0A0E001C0A1E09AD11F5FEDCF78
:1003560029C01A9310E0183028F50E948E03CF01A9
:100366000F01DF01E458FD4FFF93EF93FD01E65EB9
:10037600FF4FBF01F001EC58FD4FA081B0E0FC013A
:10038600E459FD4FE081F0E0AE1BBF0BE2E0F0E088
:100396000E94EF03DB010E942404AF91BF91EC930E
:1003A6001F5FD9CF19910895A0E189D15DD1E4E508
:1003B600F0E0FA93EA93A0E0DDDEECE5F0E0FA93F4
:1003C600EA93A1E0D7DEE4E6F0E0FA93EA93A2E04E
:1003D600D1DEECE6F0E0FA93EA93A3E0CBDEE4E7C5
:1003E600F0E0FA93EA93A4E0C5DEECE7F0E0FA93D6
:1003F600EA93A5E0BFDEA1E05FDF36D108950E9453
:100406003504E62DF0E0E130A0E0FA0719F4E7E064
:10041600F0E08BC0E330A0E0FA0721F0E730A0E07F
:10042600FA0719F4E6E0F0E080C0E230A0E0FA074F
:1004360019F4E5E0F0E079C0E630A0E0FA0721F033
:10044600EE30A0E0FA0719F4E4E0F0E06EC0E43024
:10045600A0E0FA0719F4E3E0F0E067C0EC30A0E0B2
:10046600FA0721F0EC31A0E0FA0719F4E2E0F0E037
:100476005CC0E830A0E0FA0719F4E1E0F0E055C00E
:10048600E831A0E0FA0719F4CC24DD244FC0E031AE
:10049600A0E0FA0719F4EFEFFFEF47C0E033A0E062
:1004A600FA0721F0E833A0E0FA0719F4EEEFFFEFC0
:1004B6003CC0E032A0E0FA0721F4EDEFFFEF6F0158
:1004C60004C0E036A0E0FA0709F404C0E037A0E073
:1004D600FA0719F4ECEFFFEF28C0E034A0E0FA07C2
:1004E60019F4EBEFFFEF21C0E03CA0E0FA0721F0A2
:1004F600E03EA0E0FA0719F4EAEFFFEF16C0E03895
:10050600A0E0FA0719F4E9EFFFEF0FC0309771F496
:100516000024C014D0041CF4E8EFFFEF06C000244A
:100526000C140D041CF4E8E0F0E06F01F601D401B0
:100536000E94D703E0936402F0936502409164023F
:1005460050916502042E052A29F4E52DF0E09F015D
:100556008F011FC000240416050654F4E6D0AE1B16
:10056600BF0B9D01E2D0AE0FBF1F5E978D0111C07C
:1005760055237AF4652D7727E72DF0E0DA010E94FE
:10058600D703E60FF71F8F01D0D0AE1BBF0B5E97C8
:100596009D01E42DD801F0E0AE17BF0714F4042D39
:1005A6001127E52DD801F0E0EA17FB0714F4052D15
:1005B6001127E42DD901F0E0AE17BF0714F4242D5E
:1005C6003327E52DD901F0E0EA17FB0714F4252DB2
:1005D600332708BD2ABDE0E0B1D0A22F7BDEEDE0D7
:1005E600ADD0A02F77DEE4E0A9D09DDE0E943C04CA
:1005F60026960895AA93E8B3EF70AE2FE881E07FC0
:10060600EA2BE8BB8BE08A95F1F7C29A8BE18A95D3
:10061600F1F7C2988BE18A95F1F77BC0AA93A8817E
:10062600E9DFE881E295E883A881E4DF88EC90E0E1
:100636000197F1F76EC0AA93A981F0DFC09AA8814D
:10064600EDDFC0980FC0AA93E881F0E0EC57FD4FAC
:10065600E081A981AE0FE2DFE981E0938802E881BB
:10066600E093890222960895A2E06BD0ACE0D6DF33
:10067600A1E067D0E0E0E0938902E0938802089564
:10068600AA93A881AA3031F0E0918A02A09188024B
:10069600AE1758F0E0E0EA93A0918902AF5FA0930D
:1006A6008902D1DFA881AA30A1F1E0918802EF5F2B
:1006B600E0938802C09AA881B1DFC0982AC0AA93A5
:1006C600E7B3E06FE7BBBA9AB89AB99AC298C098EE
:1006D600C198E881E0938A02E058E0938602E881B7
:1006E600E054E0938702A4E1B0E00E94B0032ED06C
:1006F6002DD02CD0A0E27EDF80E991E00197F1F7C2
:10070600A8E28CDFA4E08ADFA5E888DFA6E086DF22
:10071600ABDF21960895E12FF0E008950F01DA018D
:100726000E941804D001EC930895652D7727E72DD4
:10073600F0E0DA010E94D703DB010895EA93A0E016
:1007460082CF6CDFA3E0B0E00C94B003A0E352DFED
:1007560080E991E00197F1F70895109639F080EA63
:100766009FE00197F1F7A8951197C9F70895F195BC
:10077600E195F0400895EE230E2EEA2F19F0EE0FC4
:100786000A94E9F70895EE230E2EFD0121F0EE0FEF
:10079600FF1F0A94E1F70895FA9FF02DEB9FF00DE5
:1007A600EA9FE02DF10D08952AD0F6DF0EF4DFDF83
:1007B60008950024112490E1AA0FBB1F001C111CF0
:1007C6000E1A1F0A18F40E0E1F1E01C0A1609A957C
:1007D60099F7FD01D001089512D0EBDF0EF4C7DFC3
:1007E6000895E894B7FF04C0A095B0951196689453
:1007F600F7FDBDDFDEDFFD010EF4B9DF0895E894F5
:10080600F7FF02C0B4DF6894B7FF06C0A095B095A5
:10081600119600F8039400FA0895129602D0BF01CB
:100826001297119602D0FE2F1197E199FECFFF93F2
:10083600FFB7F894AEBBBFBBE09AEDB3FFBFFF9125
:100846000895E19B02C0A895FCCF9FB7F894AEBB74
:10085600BFBBE09A8DB3E81719F0EDBBE29AE19AB7
:100866009FBF08955A934A933A932A931A930A93E9
:1008760008955D814C813B812A8119810881089503
:00000001FF
