:020000000C945E
:100002003B000C9400000C9400000C9400000C9433
:1000120000000C9400000C9400000C9400000C945E
:1000220000000C9400000C9400000C9400000C944E
:1000320000000C9400000C9400000C9400000C943E
:1000420000000C9400000C9400000C9400000C942E
:1000520000001F1F1F1F1F1F1F1F1F111111111132
:10006200111F000080C001000B0064000200780232
:1000720066000000F894EE27ECBBF1E0FBBFEBBF9B
:10008200E5BFF8E1F1BDE1BD8DE0A2E0BB27ED9354
:100092008A95E9F780E098E0A0E6ED930197E9F709
:1000A200E8E6F0E085919591009761F0A591B59110
:1000B20005901590BF01F00105900D920197E1F7AF
:1000C200FB01F0CFEFE5EDBFE8E0EEBFC0E6D2E026
:1000D2000C946B00E0E0EBBBEABBEFEFE8BBE7BBE5
:1000E200E0E0E5BBE4BBE2BBECEFE1BBEAE4E3BF8B
:1000F200E0E0E2BFEFE0ECBFE1EAEFBDEBE0EEBD36
:10010200E0E0EDBDECBDE7BDE6BDEBBDEABDE9BD9E
:10011200E8BDE2BDE5BDE4BDE3BDE5BFE4BFE9BFC7
:10012200EAB9E0E8E8B9E0E0E0BFE0E6E7B9E7E82D
:10013200E6B9E0E0EDB9E6BFA0E114D1F5D0E4E51F
:10014200F0E0FA93EA93A0E00FD0ECE5F0E0FA9346
:10015200EA93A1E009D0A1E063D0E6D02BD0E0E0A1
:100162002CD18BD0FCCFFFCFAA931A930A93EA81AA
:10017200EE0FEE0FEE0FE0640E2F10E0183060F479
:100182000A930395EC81FD813196EC83FD833197CF
:10019200A491B5D01F5FF2CF1981088125960895E9
:1001A200AA93E881E066E7B9369A349BFECF349A87
:1001B200E5B101C11A9310E0A0E0B0E00E9435025F
:1001C2005E2EA1E0B0E00E9435024E2EA2E0B0E029
:1001D2000E9435027E2EA3E0B0E00E9435026E2E10
:1001E2001830E0F4E12FF0E0E05AFD4F0F01A12FAB
:1001F200B0E0AC5FBF4F0E943502D001EC93E12F1B
:10020200F0E0E859FD4F0F01A12FB0E0A45FBF4F0E
:100212000E943502D001EC931F5FE2CF199108953D
:10022200AA93E881E03011F4C39801C0C39AC3C015
:10023200AA931A93A981BB27E4E6F0E00E9419026F
:10024200DF01EAE0F0E00E9414021E2FA981B0E073
:10025200E4E6F0E00E941402E05DAE2F6FD0A12F21
:10026200A05D6CD0A981BB27EAE0F0E00E941902F0
:10027200E05DAE2F63D0188155C0E0E09ED0A0E0D3
:100282009FD0E4E09AD0A1E09BD0E8E096D0A2E033
:1002920097D0ECE092D0A3E093D0E0E094D0A4E039
:1002A2008FD0E4E090D0A5E08BD0E8E08CD0A6E03F
:1002B20087D0ECE088D0A7E083D00895AA93E8B372
:1002C200EF70AE2FE881E07FEA2BE8BB8BE08A95E6
:1002D200F1F7C29A8BE18A95F1F7C2988BE18A9580
:1002E200F1F769C0AA93A881E9DFE881E295E88382
:1002F200A881E4DF88EC90E00197F1F75CC0AA9353
:10030200A981F0DFC09AA881EDDFC0980BC0AA9343
:10031200E881F0E0E858FD4FE081A981AE0FE2DF0D
:10032200A980D88022960895A2E050D0ACE0DADF0E
:10033200A1E04CD0E0E0DE2EAE2E0895AA93A88173
:10034200AA3011F0AC1440F0E0E0EA93D394AD2D62
:10035200DEDFA881AA3079F1A394C09AA881C2DF16
:10036200C09829C0AA93E7B3E06FE7BBBA9AB89ADC
:10037200B99AC298C098C198C880E881E058E093C1
:100382007A02E881E054E0937B02A4E1B0E00E94AB
:10039200F30121D020D01FD0A0E290DF80E991E0CC
:1003A2000197F1F7A8E29EDFA4E09CDFA5E89ADFBF
:1003B200A6E098DFB9DF21960895EA93A0E0A7CFDF
:1003C200EFDEAE2F35CFEA93A1E0A1CF8BDFA3E022
:1003D200B0E00C94F301A0E371DF80E991E00197B2
:1003E200F1F70895109639F080EA9FE00197F1F74E
:1003F200A8951197C9F70895F195E195F0400895F0
:100402000024112490E1AA0FBB1F001C111C0E1A1C
:100412001F0A18F40E0E1F1E01C0A1609A9599F7CB
:10042200FD01D001089512D0EBDF0EF4E5DF08954F
:10043200E894B7FF04C0A095B09511966894F7FDB3
:10044200DBDFDEDFFD010EF4D7DF0895E894F7FF6E
:1004520002C0D2DF6894B7FF06C0A095B09511968E
:1004620000F8039400FA0895E199FECFFF93FFB7D5
:10047200F894AEBBBFBBE09AEDB3FFBFFF91089506
:00000001FF
