:080000000C945D000C9400005B
:100008000C9400000C9400000C9400000C94000068
:100018000C9400000C9400000C9400000C94000058
:100028000C9400000C9400000C9400000C94000048
:100038000C9400000C9400000C9400000C94000038
:100048000C9400000C9400000C9400001F1F1F1F4C
:100058001F1F1F1F1F1111111111111F10181C1F15
:100068001F0F070301030F1F1F1E1C1801070F1F77
:100078001F0F0701101C1E1F1F1E1C100000524FCF
:10008800424F54494B4120554E4E45530004424976
:10009800534D494C4C4148050000000080C0010008
:1000A8000200840001000B00A20002007802A400F4
:1000B8000000F894EE27ECBBF1E0FBBFEBBFE5BF17
:1000C800F8E1F1BDE1BD8DE0A2E0BB27ED938A9593
:1000D800E9F780E098E0A0E6ED930197E9F7E6EA12
:1000E800F0E085919591009761F0A591B591059003
:1000F8001590BF01F00105900D920197E1F7FB0102
:10010800F0CFEFE5EDBFE8E0EEBFC0E6D2E00C943B
:100118008D00E0E0EBBBEABBEFEFE8BBE7BBE0E05C
:10012800E5BBE4BBE2BBECEFE1BBE1EAEFBDEBE032
:10013800EEBDE0E0EDBDECBDE7BDE6BDEBBDEABD63
:10014800E9BDE8BDE0E6E7B9E7E8E6B920D154D073
:10015800C9D0F2D0E0E0EA93A0E06DD12AD0ACD0CB
:10016800F9CFFFCFAA931A930A93EA81EE0FEE0F05
:10017800EE0FE0640E2F10E0183060F40A93039538
:10018800EC81FD813196EC83FD833197A4914BD1AD
:100198001F5FF2CF1981088125960895AA93E881F7
:1001A800E066E7B9369A349BFECF349AE5B10C94F1
:1001B80073020E94030318E030E0BB24E12F1150C2
:1001C800E03081F0A12FEADF0E2F8BD1E059FD4FEF
:1001D800E081E01730F43F5FE12FA1E00E94A10227
:1001E800BE2AECCF343018F0B094689401C0E8947B
:1001F80020F8A32F3CD02FC00E94030310E020E07A
:1002080030E0D9010E94E6025E2E21E030E0D901FB
:100218000E94E6024E2E22E030E0D9010E94E6025A
:100228007E2E23E030E0D9010E94E6026E2E1830BF
:1002380090F457D1EC5FFF4F9F0153D1E05AFD4F27
:1002480053D14FD1E45FFF4F9F014BD1E859FD4F88
:100258004BD11F5FECCF0E94080324960895AA9300
:10026800E881E03011F4C39801C0C39A38C1AA9359
:100278001A93A981BB27E4E6F0E00E94CA02DF01D5
:10028800EAE0F0E00E94C5021E2FA981B0E0E4E692
:10029800F0E00E94C502E05DAE2FE4D0A12FA05D82
:1002A800E1D0A981BB27EAE0F0E00E94CA02E05D44
:1002B800AE2FD8D01881CAC01A9310E0183088F42D
:1002C800E12FA1E0B0E00E94A902AB2DB0E0EA2343
:1002D800FB23309711F0A0E001C0A1E0C3D01F5F5D
:1002E800EDCF28C01A9310E0183020F5FAD0CF01CE
:1002F8000F01DF01E059FD4FFF93EF93FD01EC5E25
:10030800FF4FBF01F001E859FD4FA081B0E0FC01AB
:10031800E05AFD4FE081F0E0AE1BBF0BE2E0F0E0F9
:100328000E94C502DB010E94F202AF91BF91EC93DB
:100338001F5FDACF199108956B978BE1A0E0B0E0C9
:10034800E6E8F0E00E940D031A9310E0E3E0EA9378
:10035800A0E071D01B3030F4C4D0DE015096CBD071
:100368001F5FF8CFE1E0EA93A1E065D010E01F300D
:1003780030F4B7D0DE011196BED01F5FF8CFA0EDE4
:10038800B7E00E94930264D018816C960895A0E1AA
:100398007DD05ED0E4E5F0E0FA93EA93A0E0E2DEF7
:1003A800ECE5F0E0FA93EA93A1E0DCDEE4E6F0E0C5
:1003B800FA93EA93A2E0D6DEECE6F0E0FA93EA9349
:1003C800A3E0D0DEE4E7F0E0FA93EA93A4E0CADE23
:1003D800ECE7F0E0FA93EA93A5E0C4DEA1E03FDFA2
:1003E80037D00895AA93E8B3EF70AE2FE881E07F85
:1003F800EA2BE8BB8BE08A95F1F7C29A8BE18A95E4
:10040800F1F7C2988BE18A95F1F769C0AA93A881A0
:10041800E9DFE881E295E883A881E4DF88EC90E0F1
:100428000197F1F75CC0AA93A981F0DFC09AA8816F
:10043800EDDFC0980BC0AA93E881F0E0E858FD4FC3
:10044800E081A981AE0FE2DFA980D88022960895C5
:10045800A2E059D0ACE0DADFA1E055D0E0E0DE2E32
:10046800AE2E0895AA93A881AA3011F0AC1440F0DA
:10047800E0E0EA93D394AD2DDEDFA881AA3079F1CC
:10048800A394C09AA881C2DFC09829C0AA93E7B3F1
:10049800E06FE7BBBA9AB89AB99AC298C098C1985F
:1004A800C880E881E058E0937A02E881E054E0935C
:1004B8007B02A4E1B0E00E9493022AD029D028D080
:1004C800A0E290DF80E991E00197F1F7A8E29EDFD2
:1004D800A4E09CDFA5E89ADFA6E098DFB9DF2196C3
:1004E8000895E12FF0E008950F01D9010E94E60276
:1004F800D001EC930895AE0FBF1FAC91B3DFA4E613
:10050800B0E00C94930282DFA3E0B0E00C94930275
:10051800A0E368DF80E991E00197F1F7089510966C
:1005280039F080EA9FE00197F1F7A8951197C9F78C
:100538000895F195E195F0400895EE230E2EEA2FE7
:1005480019F0EE0F0A94E9F70895EE230E2EFD0137
:1005580021F0EE0FFF1F0A94E1F7089500241124FB
:1005680090E1AA0FBB1F001C111C0E1A1F0A18F4D9
:100578000E0E1F1E01C0A1609A9599F7FD01D001CA
:10058800089512D0EBDF0EF4D4DF0895E894B7FF96
:1005980004C0A095B09511966894F7FDCADFDEDF18
:1005A800FD010EF4C6DF0895E894F7FF02C0C1DF2D
:1005B8006894B7FF06C0A095B095119600F803940B
:1005C80000FA0895E199FECFFF93FFB7F894AEBB08
:1005D800BFBBE09AEDB3FFBFFF910895E19B02C056
:1005E800A895FCCF9FB7F894AEBBBFBBE09A8DB37C
:1005F800E81719F0EDBBE29AE19A9FBF08953A9384
:100608002A931A930A9308953B812A8119810881B4
:100618000895AC0FBD1F05900D928A95E1F70895D6
:00000001FF
