:020000000C945E
:100002003B000C9400000C9400000C9400000C9433
:1000120000000C9400000C9400000C9400000C945E
:1000220000000C9400000C9400000C9400000C944E
:1000320000000C9400000C9400000C9400000C943E
:1000420000000C9400000C9400000C9400000C942E
:1000520000001F1F1F1F1F1F1F1F1F111111111132
:10006200111F000080C001000B0064000200780232
:1000720066000000F894EE27ECBBF1E0FBBFEBBF9B
:10008200E5BFF8E1F1BDE1BD8DE0A2E0BB27ED9354
:100092008A95E9F780E098E0A0E6ED930197E9F709
:1000A200E8E6F0E085919591009761F0A591B59110
:1000B20005901590BF01F00105900D920197E1F7AF
:1000C200FB01F0CFEFE5EDBFE8E0EEBFC0E6D2E026
:1000D2000C946B00E0E0EBBBEABBEFEFE8BBE7BBE5
:1000E200E0E0E5BBE4BBE2BBECEFE1BBEAE4E3BF8B
:1000F200E0E0E2BFEFE0ECBFE1EAEFBDEBE0EEBD36
:10010200E0E0EDBDECBDE7BDE6BDEBBDEABDE9BD9E
:10011200E8BDE0E6E7B9E7E8E6B9A0E143D124D1DA
:10012200E4E5F0E0FA93EA93A0E012D0ECE5F0E027
:10013200FA93EA93A1E00CD0A1E089D015D158D06E
:10014200B3D0E0E0EA93A0E002D128D0FACFFFCF0B
:10015200AA931A930A93EA81EE0FEE0FEE0FE06470
:100162000E2F10E0183060F40A930395EC81FD81A4
:100172003196EC83FD833197A491E1D01F5FF2CFDA
:100182001981088125960895AA93E881E066E7B966
:10019200369A349BFECF349AE5B12DC10E947B0280
:1001A20010E030E020E050E0BB24183068F4A12FCA
:1001B200EBDF0E2F093708F03F5FE12FA1E00E942D
:1001C20022025E2B1F5FF1CFE32FF0E0A8E0B0E048
:1001D200AE1BBF0B15971CF0B22EA7E502C0B52EC1
:1001E200A2E4CCD0A32F3BD00E948202269608958F
:1001F2000E947D0210E0A0E0B0E00E945E025E2E4E
:10020200A1E0B0E00E945E024E2EA2E0B0E00E94A9
:100212005E027E2EA3E0B0E00E945E026E2E1830D7
:1002220090F4EBD0EC5FFF4F9F01E7D0E05AFD4F17
:10023200E7D0E3D0E45FFF4F9F01DFD0E859FD4FE5
:10024200DFD01F5FECCF0E94840224960895AA9308
:10025200E881E03011F4C39801C0C39ACCC0AA93DC
:100262001A93A981BB27E4E6F0E00E944202DF0173
:10027200EAE0F0E00E943D021E2FA981B0E0E4E630
:10028200F0E00E943D02E05DAE2F78D0A12FA05D8C
:1002920075D0A981BB27EAE0F0E00E944202E05D4E
:1002A200AE2F6CD018815EC01A9310E0183020F582
:1002B200A4D0CF010F01DF01E059FD4FFF93EF936F
:1002C200FD01EC5EFF4FBF01F001E859FD4FA08137
:1002D200B0E0FC01E05AFD4FE081F0E0AE1BBF0B45
:1002E200E2E0F0E00E943D02DB010E946A02AF916F
:1002F200BF91EC931F5FDACF19910895AA93E8B3E7
:10030200EF70AE2FE881E07FEA2BE8BB8BE08A95A5
:10031200F1F7C29A8BE18A95F1F7C2988BE18A953F
:10032200F1F769C0AA93A881E9DFE881E295E88341
:10033200A881E4DF88EC90E00197F1F75CC0AA9312
:10034200A981F0DFC09AA881EDDFC0980BC0AA9303
:10035200E881F0E0E858FD4FE081A981AE0FE2DFCD
:10036200A980D88022960895A2E051D0ACE0DADFCD
:10037200A1E04DD0E0E0DE2EAE2E0895AA93A88132
:10038200AA3011F0AC1440F0E0E0EA93D394AD2D22
:10039200DEDFA881AA3079F1A394C09AA881C2DFD6
:1003A200C09829C0AA93E7B3E06FE7BBBA9AB89A9C
:1003B200B99AC298C098C198C880E881E058E09381
:1003C2007A02E881E054E0937B02A4E1B0E00E946B
:1003D200140222D021D020D0A0E290DF80E991E067
:1003E2000197F1F7A8E29EDFA4E09CDFA5E89ADF7F
:1003F200A6E098DFB9DF21960895E12FF0E0089595
:100402000F01D9010E945E02D001EC9308958ADFA8
:10041200A3E0B0E00C941402A0E370DF80E991E065
:100422000197F1F70895109639F080EA9FE001975D
:10043200F1F7A8951197C9F70895F195E195F04064
:100442000895EE230E2EEA2F19F0EE0F0A94E9F723
:1004520008950024112490E1AA0FBB1F001C111C57
:100462000E1A1F0A18F40E0E1F1E01C0A1609A95E3
:1004720099F7FD01D001089512D0EBDF0EF4DDDF14
:100482000895E894B7FF04C0A095B09511966894BA
:10049200F7FDD3DFDEDFFD010EF4CFDF0895E89430
:1004A200F7FF02C0CADF6894B7FF06C0A095B095F7
:1004B200119600F8039400FA0895E199FECFFF9394
:1004C200FFB7F894AEBBBFBBE09AEDB3FFBFFF919D
:1004D2000895E19B02C0A895FCCF9FB7F894AEBBEC
:1004E200BFBBE09A8DB3E81719F0EDBBE29AE19A2F
:1004F2009FBF08955A934A933A932A931A930A9361
:1005020008955D814C813B812A811981088108957A
:00000001FF
